:100000000C942A000C943F000C943F000C943F0089
:100010000C943F000C943F000C943F000C943F0064
:100020000C943F000C943F000C943F000C943F0054
:100030000C943F000C943F000C943F000C943F0044
:100040000C943F000C943F000C943F000C943F0034
:100050000C943F0011241FBECFE5D8E0DEBFCDBF1A
:1000600010E0A0E6B0E0EAE8F3E002C005900D92EF
:10007000AE36B107D9F70E9401010C94C3010C946C
:1000800000000E94FC0087EC90E00197F1F700C0AF
:1000900000000895CF93DF93EC018991882319F034
:1000A0000E944100FACFDF91CF910895CF93DF9363
:1000B000CDB7DEB761970FB6F894DEBF0FBECDBFE8
:1000C000AB01BE016F5F7F4F0E9483010E944A0017
:1000D00061960FB6F894DEBF0FBECDBFDF91CF9112
:1000E0000895803110F080EC01C0806C0E94FC000B
:1000F00087EC90E00197F1F700C000000895806E52
:100100000E94FC0087EC90E00197F1F700C000002E
:100110000895811102C08FEA03C081508F70806AF8
:100120000E94FC0087EC90E00197F1F700C000000E
:100130000895CF93DF93D82F80E00E948900C0E01C
:10014000CD1759F080E20E94FC0087EC90E0019707
:10015000F1F700C00000CF5FF3CFDF91CF9108959A
:10016000CF93C82F8A9A929ABC9A0E94D60084E0B4
:100170000E94E30081E00E94DD0086E00E94E8002A
:1001800092988FEC97E00197F1F700C00000929AE7
:1001900095E09A95F1F700008C2F0E9471008FE195
:1001A0000E947F008C2FCF910C9499008DB18065B7
:1001B0008DB987B3806A87BB0895811102C06D9A9B
:1001C00008956D9808959DB1937F892B8DB90895F9
:1001D0009DB19C7F282F2370922B9DB982FB88278D
:1001E00080F980FD709A80FF709808956E98089548
:1001F0006F9A08956F9808958FB9779BFECF8FB14E
:10020000089580E10E94B000C0E0D0E087E00E9445
:1002100089006AE070E0CE010E9456008C2F0E9497
:100220007F002FEF80E792E0215080409040E1F77F
:1002300000C000002196C032D10541F7CFE1D0E0E7
:100240001C2F87E00E9489006AE070E0CE010E94C6
:100250005600CA3018F480E20E944100812F0E94AB
:100260007F002FEF83EC99E0215080409040E1F730
:1002700000C00000219721F78FE10E947F0080E0FD
:100280000E94890080E690E00E944A008FE00E9470
:1002900089008DE20E9441002FEF80E792E021501B
:1002A00080409040E1F700C000008FE00E9489008C
:1002B0008FE20E9441002FEF80E792E021508040C2
:1002C0009040E1F700C000008FE00E94890081E3C8
:1002D0000E9441002FEF80E792E021508040904043
:1002E000E1F700C000008FE00E9489008CE50E94C9
:1002F00041002FEF80E792E0215080409040E1F7ED
:1003000000C00000C3CF4532510520F4423010F048
:100310000C948E01FB011082CB010895BB274A305B
:1003200031F4992322F4BDE2909581959F4F0C946E
:100330009A01BB27FB015527AA27880F991FAA1FDF
:10034000A41710F0A41B83955051B9F7A05DAA33F0
:1003500008F0A95DA193009779F7B111B1931192BB
:10036000CB010C94B301DC01FC01672F7191772361
:10037000E1F7329704C07C916D9370836291AE1760
:0A038000BF07C8F30895F894FFCFFB
:0E038A0054454D50302032312C33372743007C
:00000001FF
